{"abi":[{"type":"constructor","inputs":[{"name":"initialOwner","type":"address","internalType":"address"},{"name":"_charityAddress","type":"address","internalType":"address"},{"name":"_minimumStake","type":"uint256","internalType":"uint256"}],"stateMutability":"nonpayable"},{"type":"function","name":"charityAddress","inputs":[],"outputs":[{"name":"","type":"address","internalType":"address"}],"stateMutability":"view"},{"type":"function","name":"confirmCompletion","inputs":[{"name":"_wacanaId","type":"uint256","internalType":"uint256"}],"outputs":[],"stateMutability":"nonpayable"},{"type":"function","name":"createWacana","inputs":[{"name":"_verifier","type":"address","internalType":"address"},{"name":"_deadline","type":"uint256","internalType":"uint256"},{"name":"_title","type":"string","internalType":"string"},{"name":"_description","type":"string","internalType":"string"}],"outputs":[],"stateMutability":"payable"},{"type":"function","name":"getUserWacanas","inputs":[{"name":"_user","type":"address","internalType":"address"}],"outputs":[{"name":"","type":"uint256[]","internalType":"uint256[]"}],"stateMutability":"view"},{"type":"function","name":"getVerifierWacanas","inputs":[{"name":"_verifier","type":"address","internalType":"address"}],"outputs":[{"name":"","type":"uint256[]","internalType":"uint256[]"}],"stateMutability":"view"},{"type":"function","name":"getWacana","inputs":[{"name":"_wacanaId","type":"uint256","internalType":"uint256"}],"outputs":[{"name":"creator","type":"address","internalType":"address"},{"name":"verifier","type":"address","internalType":"address"},{"name":"deadline","type":"uint256","internalType":"uint256"},{"name":"stake","type":"uint256","internalType":"uint256"},{"name":"title","type":"string","internalType":"string"},{"name":"description","type":"string","internalType":"string"},{"name":"status","type":"uint8","internalType":"enum AdaWacana.WacanaStatus"},{"name":"creatorConfirmed","type":"bool","internalType":"bool"},{"name":"verifierConfirmed","type":"bool","internalType":"bool"},{"name":"createdAt","type":"uint256","internalType":"uint256"},{"name":"completedAt","type":"uint256","internalType":"uint256"}],"stateMutability":"view"},{"type":"function","name":"minimumStake","inputs":[],"outputs":[{"name":"","type":"uint256","internalType":"uint256"}],"stateMutability":"view"},{"type":"function","name":"owner","inputs":[],"outputs":[{"name":"","type":"address","internalType":"address"}],"stateMutability":"view"},{"type":"function","name":"pause","inputs":[],"outputs":[],"stateMutability":"nonpayable"},{"type":"function","name":"paused","inputs":[],"outputs":[{"name":"","type":"bool","internalType":"bool"}],"stateMutability":"view"},{"type":"function","name":"processTimeout","inputs":[{"name":"_wacanaId","type":"uint256","internalType":"uint256"}],"outputs":[],"stateMutability":"nonpayable"},{"type":"function","name":"renounceOwnership","inputs":[],"outputs":[],"stateMutability":"nonpayable"},{"type":"function","name":"selfReportFailure","inputs":[{"name":"_wacanaId","type":"uint256","internalType":"uint256"}],"outputs":[],"stateMutability":"nonpayable"},{"type":"function","name":"transferOwnership","inputs":[{"name":"newOwner","type":"address","internalType":"address"}],"outputs":[],"stateMutability":"nonpayable"},{"type":"function","name":"unpause","inputs":[],"outputs":[],"stateMutability":"nonpayable"},{"type":"function","name":"updateCharityAddress","inputs":[{"name":"_newCharityAddress","type":"address","internalType":"address"}],"outputs":[],"stateMutability":"nonpayable"},{"type":"function","name":"updateMinimumStake","inputs":[{"name":"_newMinimumStake","type":"uint256","internalType":"uint256"}],"outputs":[],"stateMutability":"nonpayable"},{"type":"function","name":"userWacanas","inputs":[{"name":"","type":"address","internalType":"address"},{"name":"","type":"uint256","internalType":"uint256"}],"outputs":[{"name":"","type":"uint256","internalType":"uint256"}],"stateMutability":"view"},{"type":"function","name":"verifierWacanas","inputs":[{"name":"","type":"address","internalType":"address"},{"name":"","type":"uint256","internalType":"uint256"}],"outputs":[{"name":"","type":"uint256","internalType":"uint256"}],"stateMutability":"view"},{"type":"function","name":"wacanaCounter","inputs":[],"outputs":[{"name":"","type":"uint256","internalType":"uint256"}],"stateMutability":"view"},{"type":"function","name":"wacanas","inputs":[{"name":"","type":"uint256","internalType":"uint256"}],"outputs":[{"name":"creator","type":"address","internalType":"address"},{"name":"verifier","type":"address","internalType":"address"},{"name":"deadline","type":"uint256","internalType":"uint256"},{"name":"stake","type":"uint256","internalType":"uint256"},{"name":"title","type":"string","internalType":"string"},{"name":"description","type":"string","internalType":"string"},{"name":"status","type":"uint8","internalType":"enum AdaWacana.WacanaStatus"},{"name":"creatorConfirmed","type":"bool","internalType":"bool"},{"name":"verifierConfirmed","type":"bool","internalType":"bool"},{"name":"createdAt","type":"uint256","internalType":"uint256"},{"name":"completedAt","type":"uint256","internalType":"uint256"}],"stateMutability":"view"},{"type":"event","name":"CharityAddressUpdated","inputs":[{"name":"newCharity","type":"address","indexed":true,"internalType":"address"}],"anonymous":false},{"type":"event","name":"CreatorConfirmed","inputs":[{"name":"wacanaId","type":"uint256","indexed":true,"internalType":"uint256"}],"anonymous":false},{"type":"event","name":"MinimumStakeUpdated","inputs":[{"name":"newMinimumStake","type":"uint256","indexed":false,"internalType":"uint256"}],"anonymous":false},{"type":"event","name":"OwnershipTransferred","inputs":[{"name":"previousOwner","type":"address","indexed":true,"internalType":"address"},{"name":"newOwner","type":"address","indexed":true,"internalType":"address"}],"anonymous":false},{"type":"event","name":"Paused","inputs":[{"name":"account","type":"address","indexed":false,"internalType":"address"}],"anonymous":false},{"type":"event","name":"SelfReportFailed","inputs":[{"name":"wacanaId","type":"uint256","indexed":true,"internalType":"uint256"}],"anonymous":false},{"type":"event","name":"Unpaused","inputs":[{"name":"account","type":"address","indexed":false,"internalType":"address"}],"anonymous":false},{"type":"event","name":"VerifierConfirmed","inputs":[{"name":"wacanaId","type":"uint256","indexed":true,"internalType":"uint256"}],"anonymous":false},{"type":"event","name":"WacanaCancelled","inputs":[{"name":"wacanaId","type":"uint256","indexed":true,"internalType":"uint256"}],"anonymous":false},{"type":"event","name":"WacanaCompleted","inputs":[{"name":"wacanaId","type":"uint256","indexed":true,"internalType":"uint256"}],"anonymous":false},{"type":"event","name":"WacanaCreated","inputs":[{"name":"wacanaId","type":"uint256","indexed":true,"internalType":"uint256"},{"name":"creator","type":"address","indexed":true,"internalType":"address"},{"name":"verifier","type":"address","indexed":true,"internalType":"address"},{"name":"deadline","type":"uint256","indexed":false,"internalType":"uint256"},{"name":"stake","type":"uint256","indexed":false,"internalType":"uint256"}],"anonymous":false},{"type":"event","name":"WacanaFailed","inputs":[{"name":"wacanaId","type":"uint256","indexed":true,"internalType":"uint256"},{"name":"charity","type":"address","indexed":true,"internalType":"address"}],"anonymous":false},{"type":"error","name":"EnforcedPause","inputs":[]},{"type":"error","name":"ExpectedPause","inputs":[]},{"type":"error","name":"OwnableInvalidOwner","inputs":[{"name":"owner","type":"address","internalType":"address"}]},{"type":"error","name":"OwnableUnauthorizedAccount","inputs":[{"name":"account","type":"address","internalType":"address"}]},{"type":"error","name":"ReentrancyGuardReentrantCall","inputs":[]}],"bytecode":{"object":"0x60803461015157601f6117f838819003918201601f19168301916001600160401b03831184841017610155578084926060946040528339810103126101515761004781610169565b604061005560208401610169565b92015160015f81905554909290916001600160a01b03811690811561013e576001600160a81b03198416600891821b610100600160a81b03161760015560405193901c6001600160a01b03167f8be0079c531659141344cd1fd0a4f28419497f9722a3daafe3b4186f6b6457e05f80a36001600160a01b03169081156100fc5750600480546001600160a01b03191691909117905560035560405161167a908161017e8239f35b62461bcd60e51b815260206004820152601760248201527f496e76616c6964206368617269747920616464726573730000000000000000006044820152606490fd5b631e4fbdf760e01b5f525f60045260245ffd5b5f80fd5b634e487b7160e01b5f52604160045260245ffd5b51906001600160a01b03821682036101515756fe60806040526004361015610011575f80fd5b5f3560e01c80630d944f32146111b5578063115361d81461105657806316d8f3bc14610b895780632510c90914610b315780633f4ba83a14610acb5780634c41e88014610a7f57806359c13aae146109ee5780635c975abb146109cc57806363a3c2ac1461095a578063715018a6146108fb5780638456cb59146108a35780638da5cb5b1461087757806394aeb6131461062a578063ae5a17a71461057d578063afcf2fc414610555578063b19e6ee5146103ae578063d020ae5314610391578063d122c0031461023c578063e68e8d08146101ba578063ec5ffac21461019d5763f2fde38b14610100575f80fd5b34610199576020366003190112610199576101196111fe565b61012161161a565b6001600160a01b0381169081156101865760018054610100600160a81b03198116600893841b610100600160a81b031617909155901c6001600160a01b03167f8be0079c531659141344cd1fd0a4f28419497f9722a3daafe3b4186f6b6457e05f80a3005b631e4fbdf760e01b5f525f60045260245ffd5b5f80fd5b34610199575f366003190112610199576020600354604051908152f35b34610199576020366003190112610199576001600160a01b036101db6111fe565b165f52600760205260405f206040519081602082549182815201915f5260205f20905f5b81811061022657610222856102168187038261123d565b6040519182918261143e565b0390f35b82548452602090930192600192830192016101ff565b34610199576020366003190112610199576004355f52600560205260405f2060405190610160820182811067ffffffffffffffff82111761037d57604090815281546001600160a01b0390811684526001830154166020840190815260028301549184019182526003830154606085019081529193909291906102c1600484016112f9565b92608082019384526102d5600582016112f9565b9360a0830194855260068201549060ff82169060048210156103695760c08501829052600883811c60ff908116151560e0880181905260109590951c161515610100870181905260078601546101208801819052959091015461014087018190529551985199519651915197516040519a8b9a6102229a989997989397929492916001600160a01b0390811691168c6113bd565b634e487b7160e01b5f52602160045260245ffd5b634e487b7160e01b5f52604160045260245ffd5b34610199575f366003190112610199576020600254604051908152f35b34610199576020366003190112610199576004356103ca6115e1565b6103d26115fc565b5f818152600560205260409020546103f4906001600160a01b03161515611477565b805f52600560205260ff600660405f2001541660048110156103695761041a90156114bb565b805f52600560205260405f20600281015442111561051a576006810190815460ff8160081c161590811561050b575b50156104c657815460ff191660021790915542600882015560045460039091015461048f915f918291829182916001600160a01b03165af16104896114fb565b5061152a565b6004546001600160a01b0316907fb68477f0a0215a9f12b28e35ed8e44254e89b8b163f63a6b72c9629febf98baa5f80a360015f55005b60405162461bcd60e51b815260206004820152601960248201527f416c726561647920636f6e6669726d656420627920626f7468000000000000006044820152606490fd5b60ff915060101c161584610449565b60405162461bcd60e51b8152602060048201526013602482015272111958591b1a5b99481b9bdd081c185cdcd959606a1b6044820152606490fd5b34610199575f366003190112610199576004546040516001600160a01b039091168152602090f35b34610199576020366003190112610199576105966111fe565b61059e61161a565b6001600160a01b031680156105e557600480546001600160a01b031916821790557fbb41096ffa24eba11bfb81fc65a289ad885edd2da01304592f17cc45299146405f80a2005b60405162461bcd60e51b815260206004820152601760248201527f496e76616c6964206368617269747920616464726573730000000000000000006044820152606490fd5b34610199576020366003190112610199576004356106466115e1565b61064e6115fc565b5f81815260056020526040902054610670906001600160a01b03161515611477565b805f52600560205260ff600660405f2001541660048110156103695761069690156114bb565b805f52600560205260405f20600281015442116108405780546001600160a01b0316331480801561082a575b156107f457156107a7576006810161010081546106e560ff8260081c16156115a1565b61ff001916179055817f944435e54088f28e7b58a7a0352f239df3f74c37865091de9a9e184fc80248b15f80a25b6006810190815460ff8160081c169081610799575b50610734575b60015f55005b815460ff1916600117909155426008820155805460039091015461076d915f918291829182916001600160a01b03165af16104896114fb565b7fd39e8b0c01d6d943df456d742e3097bb517468ffee41d693ecbd4c04279a4acd5f80a280808061072e565b60ff915060101c1684610728565b600681016201000081546107c160ff8260101c16156115a1565b62ff00001916179055817fc4c0436df4723b47f5b962ffa6f322889dcd49bd1af9607b6c405b4ec83cb20d5f80a2610713565b60405162461bcd60e51b815260206004820152600e60248201526d139bdd08185d5d1a1bdc9a5e995960921b6044820152606490fd5b5060018201546001600160a01b031633146106c2565b60405162461bcd60e51b815260206004820152600f60248201526e111958591b1a5b99481c185cdcd959608a1b6044820152606490fd5b34610199575f3660031901126101995760015460405160089190911c6001600160a01b03168152602090f35b34610199575f366003190112610199576108bb61161a565b6108c36115e1565b600160ff19815416176001557f62e78cea01bee320cd4e420270b5ea74000d11b0c9f74754ebdbfc544b05a2586020604051338152a1005b34610199575f3660031901126101995761091361161a565b60018054610100600160a81b031981169091555f9060081c6001600160a01b03167f8be0079c531659141344cd1fd0a4f28419497f9722a3daafe3b4186f6b6457e08280a3005b34610199576020366003190112610199576001600160a01b0361097b6111fe565b165f52600660205260405f206040519081602082549182815201915f5260205f20905f5b8181106109b657610222856102168187038261123d565b825484526020909301926001928301920161099f565b34610199575f36600319011261019957602060ff600154166040519015158152f35b34610199576020366003190112610199576004355f52600560205260405f2060018060a01b038154169061022260018060a01b0360018301541692600283015492600381015494610a41600483016112f9565b92610a4e600584016112f9565b906006840154916008600786015495015495604051998a9960ff8660101c169660ff808860081c169716958c6113bd565b34610199576020366003190112610199577ff4045d7dd317de89564c3f12c35961242ed2a4dce3ae4e7a75847ffa04bb08346020600435610abe61161a565b80600355604051908152a1005b34610199575f36600319011261019957610ae361161a565b60015460ff811615610b225760ff19166001557f5db9ee0a495bf2e6ff9c91a7834c1ba4fdd244a5e8aa4e537bd38aeae4b073aa6020604051338152a1005b638dfc202b60e01b5f5260045ffd5b3461019957604036600319011261019957610b4a6111fe565b6001600160a01b03165f9081526006602052604090208054602435919082101561019957602091610b7a91611214565b90549060031b1c604051908152f35b608036600319011261019957610b9d6111fe565b60243560443567ffffffffffffffff811161019957610bc090369060040161127b565b9160643567ffffffffffffffff811161019957610be190369060040161127b565b90610bea6115e1565b610bf26115fc565b6003543410611021576001600160a01b0316928315610fdc57338414610f975742831115610f5f57805115610f2957600254915f198314610f1557600183810160029081555f85815260056020526040902080546001600160a01b0319908116331782559281018054909316881790925581018590553460038201558251909260048401919067ffffffffffffffff821161037d578190610c9384546112c1565b601f8111610ec5575b50602090601f8311600114610e62575f92610e57575b50508160011b915f199060031b1c19161790555b8051600583019167ffffffffffffffff821161037d578190610ce884546112c1565b601f8111610e07575b50602090601f8311600114610da4575f92610d99575b50508160011b915f199060031b1c19161790555b6006810160ff19815416815562ffff00198154169055600742910155335f526006602052610d4c8160405f20611568565b825f526007602052610d618160405f20611568565b6040519182523460208301527f2ed69692dfe4bcea0253635d0549efc61a30d2e9584ea60e84526a9d08a36cf860403393a460015f55005b015190508780610d07565b5f8581528281209350601f198516905b818110610def5750908460019594939210610dd7575b505050811b019055610d1b565b01515f1960f88460031b161c19169055878080610dca565b92936020600181928786015181550195019301610db4565b909150835f5260205f20601f840160051c81019160208510610e4d575b90601f859493920160051c01905b818110610e3f5750610cf1565b5f8155849350600101610e32565b9091508190610e24565b015190508880610cb2565b5f8581528281209350601f198516905b818110610ead5750908460019594939210610e95575b505050811b019055610cc6565b01515f1960f88460031b161c19169055888080610e88565b92936020600181928786015181550195019301610e72565b909150835f5260205f20601f840160051c81019160208510610f0b575b90601f859493920160051c01905b818110610efd5750610c9c565b5f8155849350600101610ef0565b9091508190610ee2565b634e487b7160e01b5f52601160045260245ffd5b60405162461bcd60e51b815260206004820152600e60248201526d151a5d1b19481c995c5d5a5c995960921b6044820152606490fd5b60405162461bcd60e51b815260206004820152601060248201526f496e76616c696420646561646c696e6560801b6044820152606490fd5b60405162461bcd60e51b815260206004820152601860248201527f43616e6e6f7420766572696679206f776e20776163616e6100000000000000006044820152606490fd5b60405162461bcd60e51b815260206004820152601860248201527f496e76616c6964207665726966696572206164647265737300000000000000006044820152606490fd5b60405162461bcd60e51b815260206004820152600d60248201526c5374616b6520746f6f206c6f7760981b6044820152606490fd5b34610199576020366003190112610199576004356110726115e1565b61107a6115fc565b5f8181526005602052604090205461109c906001600160a01b03161515611477565b805f52600560205260ff600660405f200154166004811015610369576110c290156114bb565b5f818152600560205260409020546001600160a01b0316330361117e57805f5260056020526111225f8080806040812060068101600260ff19825416179055426008820155600360018060a01b0360045416910154905af16104896114fb565b807f021d6a750a67c69236dc7944cc6b22d2b28185b32b19e853710b67d1adda50905f80a26004546001600160a01b0316907fb68477f0a0215a9f12b28e35ed8e44254e89b8b163f63a6b72c9629febf98baa5f80a360015f55005b60405162461bcd60e51b815260206004820152600f60248201526e2737ba103a34329031b932b0ba37b960891b6044820152606490fd5b34610199576040366003190112610199576111ce6111fe565b6001600160a01b03165f9081526007602052604090208054602435919082101561019957602091610b7a91611214565b600435906001600160a01b038216820361019957565b8054821015611229575f5260205f2001905f90565b634e487b7160e01b5f52603260045260245ffd5b90601f8019910116810190811067ffffffffffffffff82111761037d57604052565b67ffffffffffffffff811161037d57601f01601f191660200190565b81601f82011215610199578035906112928261125f565b926112a0604051948561123d565b8284526020838301011161019957815f926020809301838601378301015290565b90600182811c921680156112ef575b60208310146112db57565b634e487b7160e01b5f52602260045260245ffd5b91607f16916112d0565b9060405191825f82549261130c846112c1565b80845293600181169081156113775750600114611333575b506113319250038361123d565b565b90505f9291925260205f20905f915b81831061135b575050906020611331928201015f611324565b6020919350806001915483858901015201910190918492611342565b90506020925061133194915060ff191682840152151560051b8201015f611324565b805180835260209291819084018484015e5f828201840152601f01601f1916010190565b979b9a9996989593909261141295926114049460018060a01b03168a5260018060a01b031660208a0152604089015260608801526101606080880152610160870190611399565b9085820360a0870152611399565b966004851015610369576101409460c0850152151560e084015215156101008301526101208201520152565b60206040818301928281528451809452019201905f5b8181106114615750505090565b8251845260209384019390920191600101611454565b1561147e57565b60405162461bcd60e51b815260206004820152601560248201527415d858d85b9848191bd95cc81b9bdd08195e1a5cdd605a1b6044820152606490fd5b156114c257565b60405162461bcd60e51b8152602060048201526011602482015270576163616e61206e6f742061637469766560781b6044820152606490fd5b3d15611525573d9061150c8261125f565b9161151a604051938461123d565b82523d5f602084013e565b606090565b1561153157565b60405162461bcd60e51b815260206004820152600f60248201526e151c985b9cd9995c8819985a5b1959608a1b6044820152606490fd5b80546801000000000000000081101561037d5761158a91600182018155611214565b819291549060031b91821b915f19901b1916179055565b156115a857565b60405162461bcd60e51b8152602060048201526011602482015270105b1c9958591e4818dbdb999a5c9b5959607a1b6044820152606490fd5b60ff600154166115ed57565b63d93c066560e01b5f5260045ffd5b60025f541461160b5760025f55565b633ee5aeb560e01b5f5260045ffd5b60015460081c6001600160a01b0316330361163157565b63118cdaa760e01b5f523360045260245ffdfea26469706673582212201d64abb332b812b38e4496dcb8aa6f5e7fe158dfa9252709b9810eca0a0e8ba164736f6c634300081c0033","linkReferences":{}},"methodIdentifiers":{"charityAddress()":"afcf2fc4","confirmCompletion(uint256)":"94aeb613","createWacana(address,uint256,string,string)":"16d8f3bc","getUserWacanas(address)":"63a3c2ac","getVerifierWacanas(address)":"e68e8d08","getWacana(uint256)":"d122c003","minimumStake()":"ec5ffac2","owner()":"8da5cb5b","pause()":"8456cb59","paused()":"5c975abb","processTimeout(uint256)":"b19e6ee5","renounceOwnership()":"715018a6","selfReportFailure(uint256)":"115361d8","transferOwnership(address)":"f2fde38b","unpause()":"3f4ba83a","updateCharityAddress(address)":"ae5a17a7","updateMinimumStake(uint256)":"4c41e880","userWacanas(address,uint256)":"2510c909","verifierWacanas(address,uint256)":"0d944f32","wacanaCounter()":"d020ae53","wacanas(uint256)":"59c13aae"},"id":22}